:020000040800F2
:1000000000000220B90200082D800008318000089D
:1000100035800008398000083D800008000000009D
:100020000000000000000000000000004180000807
:100030004580000800000000498000084D8000084D
:10004000BD030008BD030008BD030008BD03000890
:10005000BD030008BD0300086D800008798000081A
:10006000BD030008BD030008BD030008BD03000870
:10007000BD030008BD03000895800008BD0300080B
:10008000BD030008BD030008BD030008BD03000850
:10009000BD030008BD030008BD030008BD03000840
:1000A000BD030008BD030008BD030008BD03000830
:1000B000BD030008BD030008A5800008BD030008BB
:1000C000BD030008BD030008BD030008BD03000810
:1000D000BD030008BD030008BD030008BD03000800
:1000E000BD030008BD030008BD030008BD030008F0
:1000F000BD030008BD030008BD030008858000089B
:10010000BD030008BD030008BD030008BD030008CF
:10011000BD030008BD030008BD030008BD030008BF
:10012000BD030008BD030008BD030008BD030008AF
:10013000BD030008BD030008BD030008BD0300089F
:10014000BD030008BD030008BD030008B58000081A
:10015000BD030008BD030008BD030008BD0300087F
:10016000BD030008BD030008BD030008BD0300086F
:10017000BD030008BD030008BD0300080000000027
:10018000BD030008BD03000800B583B004F00AFFFA
:10019000384B394A1360394A136039490CE00A6810
:1001A0004B6801F10C04886803E01168196004339E
:1001B00004329842F9D82146324B9942EFD32E4B64
:1001C0001A68314B9A4204D12C4B1A682F4B9A4231
:1001D00000D0FEE7274B2E4A13602E4A13602E4BA9
:1001E0000AE0194651F8082B5B6802E00020106015
:1001F00004329A42FAD30B46284A9342F1D3244B55
:100200001B6813B9234B1B6803B1FEE704F0D6FE4D
:10021000694601A804F07EFE214C224B1C1BA41051
:10022000002504E01E4B53F8253098470135AC42B9
:10023000F8DC1D4C1D4B1C1BA410002504E01A4BC0
:1002400053F8253098470135AC42F8DC0099019805
:1002500007F06CF90546164C164B1C1BA41004E065
:10026000013C134B53F824309847002CF8DC284607
:1002700004F02CFEBABADECA0000002054010020AF
:10028000C0030008D8030008785634123254769818
:10029000580100208C200020D8030008E803000843
:1002A000E8030008E8030008E8030008E803000882
:1002B000E8030008E803000808B5FFF765FF00BF82
:1002C00000BEFEE71EF0040F0CBFEFF30880EFF353
:1002D00009807146364A10472DE9F04182B0044644
:1002E0008846084B5E6B9F6B9D6A074804F01AFEB8
:1002F000CDF800803B4632462946204604F062FE97
:1003000000BEFEE700ED00E0A8B1000800BEFEE779
:100310001EF0040F0CBFEFF30880EFF30980714665
:10032000244A10472DE9F04182B004468846084B24
:100330005E6B9F6B9D6A074804F0F4FDCDF800806A
:100340003B4632462946204604F03CFE00BEFEE70E
:1003500000ED00E0B8B100081EF0040F0CBFEFF391
:100360000880EFF309807146134A10472DE9F041E8
:1003700082B004468846084B5E6B9F6B9D6A0748B7
:1003800004F0D0FDCDF800803B4632462946204699
:1003900004F018FE00BEFEE700ED00E0C4B1000866
:1003A00000BEFEE700BEFEE700BEFEE770470000AD
:1003B000D9020008250300086D03000800BEFEE70F
:1003C000F8B200080000002058010020F8B2000830
:1003D00000000010000000105801002090200020B4
:0803E0000000001000000010F5
:1003F000704700BF10B5044602F0F8FE064BA3FBA1
:100400000030800900F0B8F8002221464FF0FF309C
:1004100000F05AF8002010BDD34D621008B5094B0A
:100420001A6842F400721A601A6842F480621A6014
:10043000032000F02BF80F20FFF7DCFFFFF7D8FFB9
:10044000002008BD003C0240024A136801331360DB
:10045000704700BF44030020014B1868704700BF7D
:100460004403002010B582B00190FFF7F5FF044669
:10047000FFF7F2FF001B019B9842F9D302B010BDB9
:10048000014B1868000C7047002004E010B50446CA
:10049000C31E042B03D9A421094807F045F9094AD2
:1004A000D36823F4E0631B041B0C240204F4E0640F
:1004B000234343F0BF6343F40033D36010BD00BF58
:1004C00088AE000800ED00E070B504460E46154603
:1004D0000F2A03D9BC211A4807F026F90F2E03D999
:1004E000BD21174807F020F9164BDA68C2F3022243
:1004F000C2F10701042928BF0421131D062B01D9CD
:10050000033A00E00022012303FA01F101393140EE
:10051000914003FA02F2013A2A400A43002C06DA1B
:1005200004F00F041201D2B2074B1A5570BD12012C
:10053000D2B204F1604404F5614484F8002370BD34
:1005400088AE000800ED00E014ED00E010B5041ED8
:1005500003DAD021064807F0E7F8620904F01F0427
:10056000012303FA04F4034B43F8224010BD00BFFB
:1005700088AE000800E100E00138B0F1807F0AD2C7
:10058000064B5860F021064A82F82310002098603C
:1005900007221A6070470120704700BF10E000E09A
:1005A00000ED00E030B405682C6824F480242C6051
:1005B000046863608368402B04D103689A60036811
:1005C000D96003E0036899600368DA6030BC704763
:1005D0000268D3B2103B0B49A1FB03131B090A4964
:1005E000C95C4165032B06D922F47F7222F0030215
:1005F0000432026504E022F47F7222F003020265F5
:10060000006D7047ABAAAAAAECAE0008002800F063
:10061000048110B504460368814A934231D01832F0
:1006200093422ED0183293422BD01832934228D0C6
:100630001832934225D01832934222D01832934276
:100640001FD0183293421CD002F55672934218D034
:100650001832934215D01832934212D01832934276
:100660000FD0183293420CD01832934209D018326E
:10067000934206D01832934203D0C521694807F04F
:1006800053F86368C3B1B3F1007F15D0B3F1806F45
:1006900012D0B3F1C06F0FD0B3F1006F0CD0B3F133
:1006A000206F09D0B3F1406F06D0B3F1606F03D073
:1006B000C6215C4807F038F8A3683BB1402B05D051
:1006C000802B03D0C721574807F02EF8E368B3F515
:1006D000007F04D01BB1C821524807F025F82369D8
:1006E000B3F5806F04D01BB1C9214E4807F01CF848
:1006F00063694BB1B3F5006F06D0B3F5805F03D0EB
:10070000CA21484807F010F8A3694BB1B3F5005F60
:1007100006D0B3F5804F03D0CB21424807F004F850
:10072000E36943B1B3F5807F05D0202B03D0CC2102
:100730003C4806F0F9FF236A63B1B3F5803F09D066
:10074000B3F5003F06D0B3F5403F03D0CD21354887
:1007500006F0EAFF636A2BB1042B03D0CE213148A7
:1007600006F0E2FF636A23B3A36A032B03D9D32104
:100770002C4806F0D9FFE36A63B1B3F5000F09D046
:10078000B3F1807F06D0B3F1C07F03D0D4212548D8
:1007900006F0CAFF236B63B1B3F5001F09D0B3F5B0
:1007A000800F06D0B3F5C00F03D0D5211D4806F049
:1007B000BBFF022384F83530206803681A491940CA
:1007C0006268A3681A43E3681A4323691A4363699A
:1007D0001A43A3691A43E3691343226A1A4341EA9D
:1007E0000203626A042A03D1E16A226B0A431343BB
:1007F00003602268536923F00703616A0B430429ED
:1008000001D1A16A0B4353612046FFF7E1FE0020AE
:10081000E064012384F8353010BD0120704700BF2B
:1008200010600240BCAE00083F8010F030B338B515
:10083000044690F83530DBB2022B21D002681368F1
:1008400023F001031360036800251D6003685D60E9
:1008500003689D600368DD6003681D6103682122F1
:100860005A61FFF7B5FE626D3F2393408360E564F4
:1008700084F8355084F83450284638BD012070473C
:10088000012038BDF8B590F83440012C2FD01D461A
:1008900016460F460446012380F83430022380F8C0
:1008A00035306A1E4FF6FE739A4204D940F2991110
:1008B000104806F039FF2068036823F00103036045
:1008C0002B46324639462046FFF76CFE22681368F5
:1008D00043F01E0313602268536943F080035361A1
:1008E0002268136843F0010313600020F8BD022062
:1008F000F8BD00BFBCAE000838B5044602681368F6
:1009000023F001031360FFF7A7FD054610E0FFF792
:10091000A3FD401BB0F57A7F0AD9E36C43F02003B6
:10092000E364002384F83430032084F8350038BDB4
:1009300023681B6813F0010FE9D1002084F834000C
:10094000012384F8353038BD38B50446056D2A6872
:10095000416D08238B401A4219D003681A6812F0BF
:10096000040F14D01A6822F004021A60426D0823A2
:100970009340AB60C36C43F00103C364042380F86D
:100980003530002380F83430836C03B198472A68EF
:10099000616D584B8B401A421AD023685A6912F085
:1009A000800F15D05A6922F080025A61626D514B56
:1009B0009340AB60E36C43F00203E364042384F8E8
:1009C0003530002384F83430A36C0BB120469847AF
:1009D0002A68616D484B8B401A421AD023681A6806
:1009E00012F0020F15D01A6822F002021A60626D2E
:1009F000414B9340AB60E36C43F00403E364042396
:100A000084F83530002384F83430A36C0BB12046D1
:100A100098472A68616D10238B401A422DD02268B6
:100A2000116811F0080F28D0116811F4802F11D02F
:100A3000AB6023681A6812F4002F03D1312384F8C5
:100A4000353016E01B6813F4002F12D0412384F8D0
:100A500035300EE0136813F4807F03D1136823F060
:100A600008031360626D10239340AB60312384F858
:100A70003530236C0BB1204698472A68616D2023DE
:100A80008B401A4234D02268116811F0100F2FD019
:100A9000116811F4802F13D0AB6023681A6812F428
:100AA000002F04D1636C1BB32046984738BD1B68E8
:100AB00013F4002F1CD0E36BD3B12046984738BD08
:100AC000136813F4807F03D1136823F010031360BD
:100AD000626D20239340AB60E36CE364112384F8E0
:100AE0003530002384F83430E36B0BB1204698474F
:100AF00038BD00BF01008000040080002DE9F047F0
:100B000082B080460F46A44B984223D003F5806301
:100B100098421FD003F5806398421BD003F5806391
:100B2000984217D003F58063984213D003F5806391
:100B300098420FD003F5806398420BD003F5806391
:100B4000984207D003F58063984203D0C5219348AB
:100B500006F0EAFD3B881BB9C621904806F0E4FD8B
:100B60007B68012B22D9112B20D0022B1ED0122BF7
:100B70001CD08B4A934219D002F58012934215D0B3
:100B800002F58012934211D0A2F5F81293420DD0D3
:100B900002F58012934209D002F58012934205D0EB
:100BA000032B03D0C7217D4806F0BEFDBB68022B96
:100BB00003D9C821794806F0B7FD00252CE10124AE
:100BC000AC403E682640B44240F025817B68022B51
:100BD00001D0122B4AD13B69C3B3092B36D0ABB33A
:100BE000A3B39BB393B3012B30D02FD0022B2DD0C6
:100BF0002CD02BD0032B29D0042B27D026D025D0C6
:100C0000052B23D022D0092B20D0062B1ED0092B58
:100C10001CD0072B1AD019D018D0082B16D015D0FD
:100C200014D0092B12D011D00A2B0FD00ED00B2BC1
:100C30000CD00C2B0AD009D00D2B07D00C2B05D0D3
:100C40000F2B03D0D921554806F06EFDEA08083273
:100C500058F8220005F0070399000F238B4020EA83
:100C600003003B698B40034348F82230D8F800303A
:100C70004FEA450A4FF0030909FA0AF96FEA090930
:100C800003EA09027B6803F0030303FA0AF3134340
:100C9000C8F800307B685A1E012A03D9112B01D0F5
:100CA000122B1BD1FB68032B03D9EC213B4806F028
:100CB0003BFDD8F8083009EA0302FB6803FA0AF39F
:100CC0001343C8F80830D8F8043023EA04047B68DA
:100CD000C3F30013AB401C43C8F80440D8F80C30F1
:100CE00009EA0309BB6803FA0AF349EA0303C8F8EF
:100CF0000C307B6813F0805F00F08D80002301933F
:100D0000284B5A6C42F480425A645B6C03F4804373
:100D10000193019BA9088A1C234B53F8220005F07C
:100D200003039B000F229A4020EA02001A4A9045D2
:100D300021D002F5806290451FD002F58062904577
:100D40001DD002F5806290451BD002F5806290456F
:100D500019D002F58062904517D002F58062904567
:100D600015D002F58062904513D002F5806290455F
:100D70001CD108221BE0002219E0012217E0022208
:100D800015E0032213E0042211E005220FE0062201
:100D90000DE007220BE000BF00000240F4AE0008A7
:100DA000000011100038024000380140092202FA08
:100DB00003F3034302311B4A42F821301A4B1A68ED
:100DC000F34302EA0301786810F4803F01D046EA59
:100DD0000201154A1160526803EA0201786810F4B2
:100DE000003F01D046EA02010F4A5160926803EACF
:100DF0000201786810F4801F01D046EA02010A4A15
:100E00009160D2681340796811F4001F01D046EA5E
:100E10000203054AD36001350F2D7FF6D0AE02B034
:100E2000BDE8F08700380140003C014070B506463F
:100E300015460C4621B940F2B111084806F074FC81
:100E4000012D04D94FF4D971044806F06DFC0DB1A1
:100E5000B46170BD2404B46170BD00BFF4AE00087D
:100E600038B504460D4621B94FF4E471034806F045
:100E70005BFC61696940616138BD00BFF4AE000888
:100E800008B5044B5B69034203D0024B586106F07E
:100E900005FC08BD003C0140F8B507683A6AC2F39A
:100EA0004343C2F30A14022B30D102F00F056CB396
:100EB00005EB8502D3000344596C39B3064622463C
:100EC000384603F075FBAA002A44D30033445A6C19
:100ED00022445A64DA6C2244DA6407EB4513D3F8EF
:100EE00010150B4A0A408AB1D3F8002522F080423F
:100EF00042F00042C3F80025AB005919CA00324441
:100F000092F8503083F0010382F85030F8BD00BFF2
:100F10000000F81FF0B585B09DF828609DF82C7092
:100F2000BDF830E090F89042012C29D00546012010
:100F300085F89002880000EB010C4FEACC042C44A9
:100F400084F83830A4F840E084F8391084F83F7011
:100F500002F07F0C84F83AC04FEAD21C84F83BC000
:100F60000844C4002C4484F83C60CDF808E00197A4
:100F70000096286803F030FC002385F8903200E0EA
:100F8000022005B0F0BD00BF90F89032012B0BD0CD
:100F900010B50446012380F89032006803F0DCFDB0
:100FA000002084F8900210BD02207047002842D033
:100FB000F0B58BB006460368B3F1A04F06D0204AC7
:100FC000934203D08B211F4806F0AEFB032386F823
:100FD0009132304607F076F8306803F091FA3446E3
:100FE00054F810EB6D460FCC0FC50FCC0FC594E82D
:100FF000030085E80300371D97E80E00704603F0F4
:101000003DFA0121306803F081FA344654F810EBC0
:101010006D460FCC0FC50FCC0FC594E8030085E8D3
:10102000030097E80E00704603F0F8FA012386F8F3
:101030009132002001E0012070470BB0F0BD00BFED
:101040000000044024AF0008F8B59DF81870BDF802
:1010500020609DF824E08D000D44EC00044484F8E9
:101060003B2084F83F303FB901EB8105EC0004449C
:10107000032584F8425006E001EB8105EC000444AE
:10108000022584F84250032B00F2AA80DFE803F027
:1010900002A13572012F40F0A380002A40F0A08009
:1010A00036B901EB8102D3000344012283F85120B9
:1010B00001EB8102D300034493F851303BB901EBBB
:1010C0008102D3000344002283F8422006E001EBB2
:1010D0008102D3000344022283F8422001EB810203
:1010E000D300034493F85C30022B79D001EB8102EA
:1010F000D300034483F83DE072E022BB01EB8102A0
:10110000D300034493F851303BB901EB8102D30083
:101110000344002283F8422006E001EB8102D30061
:101120000344022283F8422001EB8102D3000344EE
:1011300093F85C30022B53D001EB8102D3000344BF
:1011400083F83DE04CE001EB8102D300034493F8C7
:1011500050303BB901EB8102D3000344002283F8F5
:1011600042203DE001EB8102D3000344022283F8D8
:10117000422035E0B2B901EB8102D300034493F879
:1011800051303BB901EB8102D3000344002283F8C4
:10119000422025E001EB8102D3000344022283F8C0
:1011A00042201DE001EB8102D300034493F850304C
:1011B0003BB901EB8102D3000344002283F84220B3
:1011C0000EE001EB8102D3000344022283F84220A7
:1011D00006E001EB8102D3000344002283F84220A1
:1011E0008C006218D3000344079A5A649E6400225C
:1011F00083F85C20DA6483F8391083F85D20214499
:10120000CB0003F13801027C0144006803F058FB75
:10121000F8BD00BF30B583B005460468D4F840344B
:101220000193D4F840340093009B23F02E030093E5
:10123000019B13F0020F0DD0019B13F0010F05D09D
:10124000A36923F00053A36106F0AAFF009B43F0BB
:1012500002030093019B13F0080F37D0009B43F06B
:1012600008030093019B13F0040F24D0AB69022BF9
:101270000FD1019B03F4C023B3F5802F04D10221C9
:10128000286803F041FA0BE00121286803F03CFADA
:1012900006E0EB68032B03D14EF66022C4F8042469
:1012A000284606F07DFFEB6883B92A68936943F00E
:1012B000005393610AE0D4F8403423F02E03C4F8BD
:1012C00040342A68936943F000539361019B13F003
:1012D000200F03D0009B43F020030093009BC4F831
:1012E000403403B030BD00BFF8B506460D46076870
:1012F00007EB411707F5A064A36813F0040F06D0AD
:101300000423A360E36843F00203E36034E0A368CE
:1013100013F0200F02D02023A3602DE0A36813F068
:10132000080F12D0E36843F00203E36001EB81028F
:10133000D3000344052283F85D201023A360082313
:10134000A360006803F008FC16E0A36813F4806F44
:1013500012D0E36843F00203E360006803F0FCFB93
:101360001023A36005EB8502D3003344082283F8E1
:101370005D204FF48063A360A36813F4007F0BD05B
:10138000E36843F00203E3602946306803F0E4FBBE
:101390004FF40073A360F8BDA36813F0010F46D0AB
:1013A000336963B1AB005919CA003244926C2169A8
:1013B000C1F31201511A2B44DA003244D164AA005D
:1013C0002A44D3003344012283F85D20002199652B
:1013D000A26093F83F300BB1022B0AD1E36843F0CF
:1013E0000203E3602946306803F0B6FB1023A360D4
:1013F00012E0032B10D1D7F8003543F00053C7F8A3
:10140000003505EB8502D3003344012283F85C20CC
:101410002946304606F0D0FEAB005919CA003244C6
:1014200092F8503083F0010382F85030F8BDA36881
:1014300013F0020F50D0E36823F00203E36005EBE2
:101440008502D300334493F85D30012B07D105EBBF
:101450008502D3003344012283F85C202FE0052B62
:1014600007D105EB8502D3003344052283F85C20C5
:1014700025E0062B01D0082B21D1AA002A44D30055
:1014800033449A6D511C9965032A09D9AA002A444C
:10149000D300334400229A65042283F85C2006E0DE
:1014A00005EB8502D3003344022283F85C20D7F891
:1014B000003523F0804343F00043C7F80035022392
:1014C000A36005EB8502D300334493F85C202946E2
:1014D000304606F071FEF8BDA36813F0800F17D0F8
:1014E000E36843F00203E360AB005919CA003244D9
:1014F000916D013191652B44DA003244062382F864
:101500005D302946306803F027FB8023A360F8BDD7
:10151000A36813F0100F24D005EB8502D3003344E9
:1015200093F83F30032B08D1E36843F00203E360F4
:101530002946306803F010FB0AE00BB1022B07D1FB
:10154000D7F8003523F0804343F00043C7F8003557
:1015500005EB8505EB001E44032386F85D30102360
:10156000A360F8BDF8B5036803EB411303F5A0646D
:10157000A26812F0040F06D00423A360E36843F0CE
:101580000203E360F8BD0E460546A26812F0200F84
:101590001FD02023A36001EB8102D300034493F802
:1015A0003D30012B40F02D818F007A18D300034489
:1015B000042283F85D20E36843F00203E3600068DF
:1015C00003F0CAFAB919C8002844022380F85C3035
:1015D000F8BDA26812F0400F16D08B005918CA004F
:1015E0000244042182F85D103344DA0002440023EF
:1015F0009365E36843F00203E3603146006803F05B
:10160000ABFA4023A360F8BDA26812F4007F0AD0B1
:10161000E36843F00203E360006803F09DFA4FF4CF
:101620000073A360F8BDA26812F0010F14D08F0000
:101630007A18D300034400229A65E36843F002035A
:10164000E360006803F088FA0123A360B919C800B9
:10165000284480F85D30F8BDA26812F0080F10D061
:101660000823A360E36843F00203E360006803F02B
:1016700073FA06EB8601C8002844052380F85D3024
:10168000F8BDA26812F0100F15D08F007A18D300A1
:10169000034400229A65E36843F00203E3600068B4
:1016A00003F05AFAB919C8002844032380F85D30C2
:1016B0001023A360F8BDA26812F0800F10D0E36879
:1016C00043F00203E360006803F046FA06EB86018C
:1016D000C8002844062380F85D308023A360F8BD4D
:1016E000A26812F4806F13D0E36843F00203E36052
:1016F000006803F031FA1023A3604FF48063A36005
:1017000006EB8601CB002B44082283F85D20F8BD50
:10171000A26812F0020F74D0E26822F00202E260C6
:1017200001EB8101CA00024492F85D20012A15D123
:10173000B2003244D3000344012283F85C2093F8C2
:101740003F30022B51D1B2003244D300034493F80E
:10175000512082F0010283F8512046E0032A07D18C
:1017600006EB8602D3000344022283F85C203CE0AF
:10177000042A0AD1B2003244D3000344022283F87F
:101780005C20002283F83D202FE0052A07D106EBDC
:101790008602D3000344052283F85C2025E0062A54
:1017A00001D0082A21D1B1003144CA002A44916DE8
:1017B000481C9065032909D9B1003144CA002A4464
:1017C00000219165042182F85C1006E006EB860199
:1017D000CA002A44022182F85C10D3F8002522F0C6
:1017E000804242F00042C3F800250223A36006EBCA
:1017F0008602D3002B4493F85C203146284606F03D
:10180000DBFCF8BDF8B504460568284602F0E4FEA6
:10181000012840F09480206802F0DAFE002800F0F1
:101820008E80206802F0D4FE10F4001F03D02368DD
:101830004FF400125A61206802F0CAFE10F4801FB3
:1018400003D023684FF480125A61206802F0C0FE72
:1018500010F0806F03D023684FF080625A612068D7
:1018600002F0B6FE10F0020F02D0236802225A6185
:10187000206802F0ADFE10F0005F10D0D5F84034C3
:1018800023F02E03C5F84034204606F08FFC0121DA
:10189000206802F039FF23684FF000525A61206837
:1018A00002F096FE10F0807F02D02046FFF7B2FCD7
:1018B000206802F08DFE10F0080F05D0204606F0DB
:1018C00069FC236808225A61206802F081FE10F04A
:1018D000007F21D0206803F031F90746002614E08C
:1018E0000123B3401F420FD005EB4613D3F8003558
:1018F00013F4004F04D0F1B22046FFF7F5FC03E0EB
:10190000F1B22046FFF72EFE0136A3689E42E7D3D0
:1019100023684FF000725A61206802F059FE10F0FF
:10192000100F0CD02268936923F0100393612046B6
:10193000FFF7B2FA2268936943F010039361F8BD90
:1019400038B590F89032012B0ED00446012580F86E
:101950009052006802F0CEFD2946206802F00CFF8C
:10196000002084F8900238BD022038BD90F89032F3
:10197000012B0BD010B50446012380F8903200688B
:1019800003F022FA002084F8900210BD0220704774
:1019900008B5006802F0D6FE08BD00BF01EB81016A
:1019A000CB00184490F85C00704700BF01EB810148
:1019B000CB001844C06C704708B5006802F006FF01
:1019C00008BD00BF08B5006802F0F6FE08BD00BF04
:1019D00003685A6912F4806F0DD06FF480625A6107
:1019E0000423036400230363202280F83D2080F851
:1019F0003C30012070470020704700BF2DE9F041C6
:101A000006460C4690461D46FEF726FD0746B8F1F1
:101A1000000F13D03FE0B5F1FF3F0FD025B1FEF727
:101A20001BFDC01B854209D200233363202286F8A8
:101A30003D2086F83C300320BDE8F081C4F3074325
:101A4000012B08D133685B6924EA03039BB200339E
:101A500018BF012307E033689B6924EA03039BB2A4
:101A6000003318BF0123002BD5D10020BDE8F08141
:101A7000B5F1FF3F0FD025B1FEF7EEFCC01B85424C
:101A800009D200233363202286F83D2086F83C30BB
:101A90000320BDE8F081C4F30743012B08D133686C
:101AA0005B6924EA03039BB2B3FA83F35B0907E0A3
:101AB00033689B6924EA03039BB2B3FA83F35B099F
:101AC000002BD5D10020BDE8F08100BFF8B5044659
:101AD0000D461646FEF7C0FC074629E023685A6902
:101AE00012F4806F12D01A6842F400721A602368F0
:101AF0006FF480625A61042323640023236320224D
:101B000084F83D2084F83C300120F8BDB6F1FF3F59
:101B10000ED026B1FEF7A0FCC01B864208D20023DF
:101B20002363202284F83D2084F83C300320F8BD54
:101B3000C5F30743012B08D123685B6925EA03033A
:101B40009BB2003318BF012307E023689B6925EA95
:101B500003039BB2003318BF0123002BBED100202A
:101B6000F8BD00BF70B504460D46FEF775FC06468D
:101B700019E02046FFF72CFFE0B9B5F1FF3F12D086
:101B800025B1FEF769FC801B85420CD2236C43F023
:101B90002003236400232363202284F83D2084F85B
:101BA0003C30032070BD23685B6913F0800FE0D0E8
:101BB000002070BD012070BDF0B583B004460D4615
:101BC00016461F460268136843F480731360089B2F
:101BD00000224FF00111FFF711FF002843D12368C5
:101BE00005F0FE051D61089A24492046FFF76EFFA7
:101BF00020B1236C042B38D101233BE00023019357
:101C000023685A6901929B690193019B08992046B8
:101C1000FFF7A8FF034648B1236C042B27D12268A5
:101C2000136843F400731360012323E0012F03D1F1
:101C30002268F6B216611DE02368320A1A6108991B
:101C40002046FFF78FFF034648B1236C042B10D1C9
:101C50002268136843F40073136001230AE02268CA
:101C6000F6B2166106E0032304E0032302E0032337
:101C700000E00323184603B0F0BD00BF02000100DE
:101C8000F0B583B004460D4616461F460268136839
:101C900043F4806313600268136843F48073136035
:101CA000089B00224FF00111FFF7A8FE00286DD11C
:101CB0002368EDB205F0FE021A61089A3B492046FE
:101CC000FFF704FF20B1236C042B61D101236AE0EC
:101CD0000023019323685A6901929B690193019B38
:101CE00008992046FFF73EFF48B1236C042B51D1E1
:101CF0002268136843F400731360012353E0012F3B
:101D000003D12368F6B21E6114E02368320A1A6117
:101D100008992046FFF726FF48B1236C042B3BD1DE
:101D20002268136843F40073136001233BE02368C7
:101D3000F6B21E6108992046FFF714FF48B1236CE4
:101D4000042B2BD12268136843F400731360012322
:101D500029E02268136843F480731360089B002213
:101D60004FF001112046FFF749FEC8B9236845F03E
:101D700001051D61089A0D492046FFF7A7FE03469D
:101D800088B1236C042B0DD101230CE003230AE05E
:101D9000032308E0032306E0032304E0032302E017
:101DA000032300E00323184603B0F0BD0200010046
:101DB00070B505460C46FEF74FFB064622E05A6911
:101DC00012F0100F0CD06FF010025A6100232B6438
:101DD0002B63202285F83D2085F83C30012070BD22
:101DE00024B1FEF739FB801B84420BD22B6C43F0ED
:101DF00020032B64202385F83D30002385F83C30F8
:101E0000032070BD2B685A6912F0400FD7D0002014
:101E100070BD00BF704700BF002800F0E38038B5F8
:101E200004460368704A93420CD002F580629342E4
:101E300008D002F58062934204D04FF4B1716B4830
:101E400005F072FC6368013B694A934204D940F291
:101E50006311664805F068FCA3683BB1B3F5804F99
:101E600004D04FF4B271614805F05EFCE36823F4DE
:101E70007F7323F0030323B140F265115B4805F043
:101E800053FC2369B3F5804F07D0B3F5404F04D01E
:101E90004FF4B371554805F047FC6369012B04D931
:101EA00040F26711514805F03FFCA36933F0FE038F
:101EB00004D04FF4B4714D4805F036FCE36933B1FA
:101EC000402B04D040F26911484805F02DFC236AEC
:101ED00033B1802B04D04FF4B571444805F024FC95
:101EE00094F83D3013F0FF0F05D1002384F83C3007
:101EF0002046FFF78FFF242384F83D3022681368C3
:101F000023F00103136001F08BF93A4BA3FB00238C
:101F10009B0C2268536021686568374A954201D856
:101F2000013308E04FF4967202FB03F3334AA2FB3D
:101F300003239B0901330B62216863682E4A934295
:101F400008D85B00B0FBF3F0C0F30B03032B2BD8D6
:101F5000042029E0A5684DB903EB4302B0FBF2F27F
:101F6000C2F30B02B2FA82F252090AE003EB8302D7
:101F700002EB8202B0FBF2F2C2F30B02B2FA82F27F
:101F8000520982B935B903EB4303B0FBF3F040F4D7
:101F9000004009E003EB830303EB8303B0FBF3F0A2
:101FA00040F4404000E00120C8612268E169236AF2
:101FB0000B43136022682169E3680B439360226836
:101FC0006169A3690B43D3602268136843F001037E
:101FD000136000202064202384F83D30206384F8BF
:101FE0003E0038BD012070470054004054AF000847
:101FF0007F1A060083DE1B43A0860100D34D6210CA
:10200000704700BF38B310B504460368134A9342C3
:102010000CD002F58062934208D002F580629342B0
:1020200004D040F2B1110E4805F07EFB242384F861
:102030003D302268136823F0010313602046FFF748
:10204000DFFF0020206484F83D00206384F83E0018
:1020500084F83C0010BD0120704700BF00540040D0
:1020600054AF00082DE9F04182B005460F46904676
:102070001C46BDF82460012B06D0102B04D040F67E
:10208000FE01484805F050FB95F83D30DBB2202BAF
:102090007BD142F21073012243492846FFF7AEFC80
:1020A000002874D195F83C30012B72D0012385F8BB
:1020B0003C302A68136823F400631360212385F8F9
:1020C0003D30402385F83E3000232B64A3F5803358
:1020D000EB620A9B00932346424639462846FFF7A7
:1020E0006BFD002831D02B6C042B04D1002385F824
:1020F0003C30012352E0002385F83C3003234DE0BF
:102100000A992846FFF72EFD48B12B6C042B42D1CB
:102110002A68136843F40073136001233EE02B68C0
:10212000089A0132089909781961731E9BB22968CF
:10213000486910F0040F06D02BB1089B9A1C5B78FD
:102140000B61B31E9BB21E460892002ED8D10A998D
:102150002846FFF707FD034648B12B6C042B1CD122
:102160002A68136843F400731360012316E029689A
:102170000A6842F400720A60202285F83D2000229D
:1021800085F83E2085F83C2008E0022306E0022383
:1021900004E0022302E0032300E00323184602B018
:1021A000BDE8F08154AF0008020010002DE9F041B5
:1021B00086B005460F4690461C46BDF83460012B9C
:1021C00006D0102B04D04FF41761914805F0ACFAFB
:1021D00095F83D30DBB2202B40F0078142F21073BE
:1021E00001228C492846FFF709FC002840F0FF80B7
:1021F00095F83C30012B00F0FC80012385F83C3041
:102200002A68136823F400631360222385F83D30A5
:10221000402385F83E3000232B64A3F58033EB6226
:102220000E9B00932346424639462846FFF728FD79
:10223000044660B12B6C042B04D1002385F83C309C
:102240000124E1E0002385F83C300324DCE066B99A
:10225000002302932B685A6902929A690292029AA9
:102260001A6842F400721A60B3E0012E11D12A6894
:10227000136823F480631360002303932B685A6967
:1022800003929A690392039A1A6842F400721A60E0
:102290009FE0022E12D12A68136823F48063136032
:1022A0002A68136843F400631360002304932B68C7
:1022B0005A6904929B690493049B8AE00023059366
:1022C0002B685A6905929B690593059B81E0032E53
:1022D0005DD8012E14D10E992846FFF769FD28B16B
:1022E0002B6C202B40F0878003248DE02B681B692A
:1022F0000C9A1370013EB6B2134601330C9368E09A
:10230000022E19D10E9B002243492846FFF776FB87
:10231000002872D12A68136843F4007313602B6895
:102320001A690C9B03F8022B2A6812690C994A70EF
:10233000023EB6B20C934CE00E9B00223649284672
:10234000FFF75CFB00285AD12A68136823F48063E6
:1023500013602B681B690C9A13700E9B00222E4988
:102360002846FFF74BFB00284BD12A68136843F43B
:10237000007313602B681B690C9A53702B681B69E0
:102380009370033EB6B2134603330C9321E00E99CB
:102390002846FFF70DFD20B12B6C202B33D10324F1
:1023A00032E00C9B581C2B681B690C9A1370731E2F
:1023B0009BB22A68516911F0040F08D013690C9A76
:1023C0005370023EB6B2134602330C9301E01E4630
:1023D0000C90002E7FF47BAF202385F83D30002346
:1023E00085F83E3085F83C300EE002240CE00224F3
:1023F0000AE0022408E0012406E0032404E00324A8
:1024000002E0032400E00124204606B0BDE8F0818C
:1024100054AF0008020010000400010090F83D00D5
:10242000704700BF704700BF00294DD010B50C4663
:10243000002A4BD090F83D30DBB2012B48D14162ED
:102440000368DB6903F00703032B01D0052B04D1DC
:10245000520092B20285428501E00285428590F8E1
:102460003C30DBB2012B35D021460446012380F8F5
:102470003C30122380F83D3000230364436B164A3E
:102480001A64436B154ADA63436B154A9A6402680F
:10249000038D9BB20C32406BFEF7F4F92368DA69C6
:1024A00012F4806F03D1DA6942F48062DA61236842
:1024B0005A6812F0020F03D15A6842F002025A60C1
:1024C000002084F83C0010BD01207047012010BDA1
:1024D000022010BD022010BDE524000819250008C7
:1024E000F124000808B5806B05F080FD08BD00BF31
:1024F00008B5806B002343854386012380F83D3077
:10250000036C43F02003036405F07CFD08BD00BFAD
:1025100090F83D00704700BF08B5836B02681268F1
:1025200012F4807F3CD11A6A012A05D019684A68E2
:1025300022F002024A6022E01A68D16901F4407177
:10254000B1F5007F03D0D16911F4407F04D1516807
:1025500021F00201516012E013498A4202D1A1F533
:10256000806101E04FF040210F48824201D10F4AC3
:1025700001E04FF04022526822F002024A6000223D
:102580005A8593F83D20D2B2322A06D15A8E92B2A1
:1025900032B9012283F83D2002E0012283F83D2078
:1025A000184605F019FD08BD003800400034004011
:1025B00090F83C30DBB2012B59D0012380F83C303D
:1025C00090F83D30DBB2122B05D10268536823F03E
:1025D0000203536046E090F83D30DBB2222B05D178
:1025E0000268536823F0010353603BE090F83D30EC
:1025F000DBB2322B36D1436813B1B3F5007F19D16A
:102600000268536823F0020353600368194A934237
:1026100002D1A2F5806201E04FF0402215498B42C1
:1026200001D1154B01E04FF040235B6823F001031B
:10263000536017E00268536823F001035360036896
:102640000C4A934201D10C4901E04FF04021094A64
:10265000934201D1084B01E04FF040235B6823F027
:1026600002034B60002380F83C301846704702207C
:10267000704700BF003800400034004090F83C3004
:10268000DBB2012B62D0012380F83C3090F83D3062
:10269000DBB2122B05D10268536843F0020353608A
:1026A00046E090F83D30DBB2222B05D1026853683A
:1026B00043F0010353603BE090F83D30DBB2322B36
:1026C00036D1436813B1B3F5007F19D1026853685E
:1026D00043F00203536003681D4A934202D1A2F5FE
:1026E000806201E04FF0402219498B4201D1194B21
:1026F00001E04FF040235B6843F00103536017E0B3
:102700000268536843F0010353600368104A934220
:1027100001D1104901E04FF040210D4A934201D10F
:102720000C4B01E04FF040235B6843F002034B6029
:102730000368DA6912F4806F03D1DA6942F48062C7
:10274000DA61002380F83C30184670470220704759
:10275000003800400034004090F83C30DBB2012BE0
:1027600064D010B5012380F83C300268536823F030
:10277000020353600268536823F001035360036A45
:10278000012B27D103682A4A934202D1A2F5806225
:1027900001E04FF0402226498B4201D1254B01E058
:1027A0004FF040235B6823F0020353600368204A24
:1027B000934202D1A2F5806201E04FF040221C4911
:1027C0008B4201D11B4B01E04FF040235B6823F0AB
:1027D000010353600446406B08B1FEF78DF8A06B0F
:1027E00008B1FEF789F82268D36923F48063D361C6
:1027F000236A012B13D123680D4A934202D1A2F51B
:10280000806201E04FF0402209498B4201D1094B1F
:1028100001E04FF04023DB6923F48063D36101239F
:1028200084F83D30002084F83C0010BD0220704741
:102830000038004000340040C369012B04D101225C
:10284000124B1A6012487047124B5B6813F4800FEA
:1028500007D0104B586800F03F000F4BB3FBF0F06F
:1028600006E00C4B586800F03F000C4BB3FBF0F057
:10287000084AD2F88430C3F3881303FB00F3D2F87C
:102880008400C0F30270B3FBF0F070475C01474274
:102890000080BB000038024000127A000024F400DF
:1028A000002800F00D8170B50446436863B1B3F5AC
:1028B000807F09D0B3F5007F06D0B3F5407F03D009
:1028C000C421804804F030FFA3685BB1102B09D00D
:1028D000202B07D0302B05D0B02B03D0C521794851
:1028E00004F022FFE368012B07D9032B05D0052B49
:1028F00003D0C621734804F017FF2369B3F5007FA6
:1029000004D01BB1C7216F4804F00EFF6369A3F523
:10291000FA516D4A914205D9022B03D0C82169486A
:1029200004F002FFA3692BB1082B03D0C92165482D
:1029300004F0FAFEE369012B03D9CA21614804F0CF
:10294000F3FE94F83D3013F0FF0F05D1002384F817
:102950003C302046FFF766FD022284F83D202168C6
:10296000CB6923F47B6323F00F03CB6123681A62E6
:102970002368DE696369934228D0E3680BB90125B7
:1029800000E002252046FFF757FF2369B3F5007FDB
:1029900008D1000A00EB800043006569B3FBF5F342
:1029A000053309E06D01B0FBF5F000EB800043005A
:1029B0006569B3FBF5F30533444DA5FB0335ED081D
:1029C00005F00103EA1A5208180202E00025284621
:1029D0000222931EFD2B01D90020022221682369C7
:1029E000034313430B626268A3681A43E3681A4304
:1029F000A3691343334343F400632268D361236A1A
:102A0000012B04D94FF493712E4804F08DFE236AF4
:102A1000012B4FD123682E4A934201D12D4901E069
:102A20004FF040212A4A934201D12A4B01E04FF056
:102A30004023DB6923F47B6323F00F03CB6122681F
:102A4000234B9A4201D1234A01E04FF04022022356
:102A5000136221681E4B994202D1A3F5806301E005
:102A60004FF04023D8696268B2F5007F07D04AB1C1
:102A7000B2F5407F09D0B2F5807F09D107E04FF46D
:102A8000807505E04FF4807502E0002500E0002528
:102A9000A2681543E2682A43A3691343034343F43E
:102AA00000630B4A914202D1A2F5806201E04FF02F
:102AB0004022D36100202064012384F83D3070BDA2
:102AC0000120704784AF0008C0CE0200CDCCCCCC32
:102AD000003800400034004030B583B0044603683D
:102AE0000F2B03D9F6219C4804F01EFE236813F037
:102AF000010F45D06368012B05D9052B03D0FB21BD
:102B0000954804F011FE954B9B6803F00C03042BD1
:102B10000AD0924B9B6803F00C03082B0CD18F4B0F
:102B20005B6813F4800F07D08C4B1B6813F4003FD5
:102B300026D0636823BBCCE12279894B1A70636885
:102B40007BB1FDF789FC054605E0FDF785FC401BE0
:102B5000642800F2C081814B1B6813F4003FF4D05D
:102B60000EE0FDF779FC054605E0FDF775FC401B1E
:102B7000642800F2B281794B1B6813F4003FF4D152
:102B8000236813F0020F6AD0E368012B04D940F2E6
:102B90002D11714804F0C8FD23691F2B04D94FF48F
:102BA00097716D4804F0C0FD6C4B9B6813F00C0FDF
:102BB0000AD06A4B9B6803F00C03082B1BD1674BB0
:102BC0005B6813F4800F16D1644B1B6813F0020F7F
:102BD00003D0E368012B40F082816048036823F052
:102BE000F8012369F82292FAA2F2B2FA82F2934033
:102BF0000B43036033E0E368FBB10122594B1A60D9
:102C0000FDF72AFC054605E0FDF726FC401B0228DF
:102C100000F26781514B1B6813F0020FF4D04F484C
:102C2000036823F0F8012369F82292FAA2F2B2FABB
:102C300082F293400B43036011E00022494B1A607B
:102C4000FDF70AFC054605E0FDF706FC401B0228DF
:102C500000F24981414B1B6813F0020FF4D1236845
:102C600013F0080F2ED06369012B04D94FF4B7710C
:102C7000394804F059FD636993B101223A4B1A6057
:102C8000FDF7EAFB054605E0FDF7E6FB401B0228E1
:102C900000F22B81314B5B6F13F0020FF4D011E087
:102CA0000022314B1A60FDF7D7FB054605E0FDF722
:102CB000D3FB401B022800F21A81284B5B6F13F0F4
:102CC000020FF4D1236813F0040F60D0A368012B26
:102CD00006D9052B04D04FF4CC711F4804F024FD15
:102CE000002301931D4B1A6C42F080521A641B6C36
:102CF00003F080530193019B1C4A136843F48073D3
:102D00001360FDF7A9FB054605E0FDF7A5FB401B99
:102D1000022800F2EE80154B1B6813F4807FF4D07C
:102D2000227A134B1A70A3688BB1FDF795FB054609
:102D300007E0FDF791FB401B41F28833984200F217
:102D4000DA80064B1B6F13F0020FF2D01FE0FDF785
:102D500083FB054616E000BFC8AF000800380240FC
:102D60000238024000004742800E47420070004097
:102D700070380240FDF770FB401B41F288339842E7
:102D800000F2BB80634B1B6F13F0020FF2D1A369FB
:102D9000022B04D940F2CD115F4804F0C5FCA369B1
:102DA000002B00F0AC805B4A926802F00C02082A0B
:102DB00000F0A780022B79D1E3693BB1B3F5800F16
:102DC00004D04FF4EB71544804F0AEFC236A3F2B5F
:102DD00004D940F2D711504804F0A6FC636A323B94
:102DE000B3F5BF7F04D94FF4EC714B4804F09CFC61
:102DF000A36A022B0AD0042B08D0062B06D0082B7E
:102E000004D040F2D911444804F08EFCE36A043B3C
:102E10000B2B04D94FF4ED713F4804F085FC0022E0
:102E20003E4B1A60FDF718FB054604E0FDF714FB66
:102E3000401B022867D8374B1B6813F0007FF5D181
:102E4000E169236A1943636A47F6C07292FAA2F2F3
:102E5000B2FA82F293401943A36A5B085A1E4FF4F8
:102E6000403393FAA3F3B3FA83F302FA03F30B4369
:102E7000E26A4FF0706191FAA1F1B1FA81F18A40F2
:102E80001343244A53600122244B1A60FDF7E4FAED
:102E9000044604E0FDF7E0FA001B022835D81D4B7C
:102EA0001B6813F0007FF5D0002031E000221B4B9F
:102EB0001A60FDF7D1FA044604E0FDF7CDFA001BD5
:102EC000022824D8134B1B6813F0007FF5D1002093
:102ED0001EE001201CE003201AE0032018E001207E
:102EE00016E0032014E0032012E0032010E003208A
:102EF0000EE003200CE003200AE0032008E000209D
:102F000006E0012004E0032002E0032000E00320AB
:102F100003B030BD00380240C8AF0008600047422F
:102F200070B504460D460368013B0E2B04D94FF4DF
:102F30000E71834804F0F8FB072D04D940F23921C3
:102F40007F4804F0F1FB7F4B1B6803F00F039D42A9
:102F500008D9EBB27B4A1370136803F00F039D424C
:102F600040F0DB80236813F0020F1DD0A368A3B1EB
:102F7000802B12D0902B10D0A02B0ED0B02B0CD0C9
:102F8000C02B0AD0D02B08D0E02B06D0F02B04D0D9
:102F90004FF414716A4804F0C7FB6B498B6823F047
:102FA000F002A36813438B60236813F0010F64D011
:102FB0006368032B04D940F25721614804F0B4FB45
:102FC0006268012A05D1604B1B6813F4003F0FD1E2
:102FD000A5E0931E012B05D85B4B1B6813F0007F07
:102FE00006D19EE0584B1B6813F0020F00F09B8047
:102FF00055498B6823F0030313438B60FDF72CFACC
:1030000006466368012B0FD107E0FDF725FA801B08
:1030100041F28833984200F288804B4B9B6803F062
:103020000C03042BF1D128E0022B0ED106E0FDF7B2
:1030300013FA801B41F28833984278D8424B9B6840
:1030400003F00C03082BF2D117E0032B10D13E4BF9
:103050009B68FDF701FA801B41F288339842F6D94C
:1030600067E0FDF7F9F9801B41F28833984262D896
:10307000354B9B6813F00C0FF3D1324B1B6803F0F8
:103080000F039D4207D2EAB22E4B1A701B6803F061
:103090000F039D4251D1236813F0040F19D0E36848
:1030A00083B1B3F5805F0DD0B3F5A05F0AD0B3F55F
:1030B000C05F07D0B3F5E05F04D040F2B5212048EF
:1030C00004F032FB20498B6823F4E052E368134399
:1030D0008B60236813F0080F1AD0236983B1B3F50E
:1030E000805F0DD0B3F5A05F0AD0B3F5C05F07D005
:1030F000B3F5E05F04D04FF42F71114804F014FBD6
:10310000114A936823F46043216943EAC103936041
:103110000F20FDF76FF9002070BD012070BD012068
:1031200070BD012070BD012070BD032070BD032063
:1031300070BD032070BD032070BD012070BD00BFB5
:10314000C8AF0008003C024000380240244B9B6896
:1031500003F00C03042B3FD0082B01D0214870470B
:1031600010B41F4B586800F03F005B6813F4800FE9
:1031700010D01D4BB3FBF0F0194B5A6847F6C071E5
:103180000A4091FAA1F3B3FA83F322FA03F303FBA3
:1031900000F310E0134BB3FBF0F0114B5A6847F605
:1031A000C07402EA040194FAA4F2B2FA82F221FA9B
:1031B00002F202FB00F30A4A506800F440324FF476
:1031C000403090FAA0F0B0FA80F022FA00F001301E
:1031D0004000B3FBF0F001E00348704710BC7047BB
:1031E000003802400024F40000127A0008B5FFF70E
:1031F000ADFF084B9B6803F0F002F02393FAA3F3B2
:10320000B3FA83F322FA03F3034AD35CD840034BA7
:10321000186008BD00380240B8AF00080C0000205C
:1032200008B5FFF7E3FF084B9B6803F4E0524FF447
:10323000E05393FAA3F3B3FA83F322FA03F3034AB6
:10324000D35CD84008BD00BF00380240B8AF0008CA
:1032500030B583B005460368013B062B04D940F224
:103260001661624804F060FA2B6813F0010F4AD02F
:10327000AB68023B052B04D940F21C615B4804F0AB
:1032800053FA6B68323BB3F5BF7F04D940F21D613E
:10329000564804F049FA0022554B1A60FDF7DCF855
:1032A000044605E0FDF7D8F8001B022800F29180E3
:1032B000504B1B6813F0006FF4D16A6847F6C07377
:1032C00093FAA3F3B3FA83F302FA03F1AB684FF076
:1032D000E04292FAA2F2B2FA82F293400B43454ADC
:1032E000C2F884300122424B1A60FDF7B5F804465B
:1032F00004E0FDF7B1F8001B02286CD83D4B1B68B9
:1033000013F0006FF5D02B6813F0020F65D0002387
:103310000193384B1A6C42F080521A641B6C03F014
:1033200080530193019B344A136843F48073136004
:10333000FDF792F8044604E0FDF78EF8001B022822
:103340004DD82D4B1B6813F4807FF5D0294B1A6F95
:10335000EB68534013F4407F43D0264A136F23F4A5
:103360004070264901240C6000240C60106713F0A3
:10337000020F0FD0FDF770F8044606E0FDF76CF879
:10338000001B41F2883398422DD81A4B1B6F13F063
:10339000020FF3D0EB6803F44072B2F5407F0AD11C
:1033A00014498A6822F4F81223F0704323F440731E
:1033B00013438B6004E00F4A936823F4F81393607F
:1033C0000C4A116FEB68C3F30B030B431367002028
:1033D0000AE0032008E0032006E0002004E00320C8
:1033E00002E0002000E0032003B030BDF8AF000889
:1033F000680047420038024000700040400E4742DB
:10340000032303601149D1F8842047F6C0731A40A2
:1034100093FAA3F3B3FA83F322FA03F34360D1F8E8
:10342000843003F0E0424FF0E04393FAA3F3B3FAA1
:1034300083F322FA03F383608B6803F4F8120B6FB3
:1034400003F440731343C360704700BF0038024069
:10345000F8B505460F4616461C4636E0B4F1FF3F68
:1034600033D02CB1FCF7F8FF069BC01A84422CD84D
:103470002A68536823F0E00353606B68B3F5827FDA
:103480000BD1AB68B3F5004F02D0B3F5806F04D118
:103490002A68136823F040031360AB6AB3F5005F3A
:1034A0000BD12A68136823F400531B041B0C136010
:1034B0002A68136843F400531360012385F85130E0
:1034C000002385F850300320F8BD2B689B683B40F3
:1034D000B342C3D10020F8BD10B582B004460092BB
:1034E0000B4600228021FFF7B3FF034620B1636D36
:1034F00043F0200363650323184602B010BD00BFEC
:10350000704700BF002800F0D58010B5044603685E
:10351000694A93420CD0A2F57842934208D002F552
:103520008062934204D04FF48671644804F0FCF842
:1035300063683BB1B3F5827F04D040F20D115F4860
:1035400004F0F2F8A36853B1B3F5806F07D0B3F578
:10355000004F04D04FF48771584804F0E5F8E36851
:10356000B3F5006F05D023B140F20F11534804F0BA
:10357000DBF8A369B3F5007F08D03BB1B3F5802F2A
:1035800004D04FF488714D4804F0CEF8E36993B14C
:10359000082B10D0102B0ED0182B0CD0202B0AD0BB
:1035A000282B08D0302B06D0382B04D040F2111134
:1035B000424804F0B9F8236A33B1802B04D04FF4A9
:1035C00089713E4804F0B0F8636A33B1102B04D01F
:1035D00040F21311394804F0A7F8636A83B92369EC
:1035E00033B1022B04D04FF48B71344804F09CF8B3
:1035F0006369012B04D940F21711304804F094F8A4
:10360000A36A3BB1B3F5005F04D04FF48D712B4832
:1036100004F08AF8A36AB3F5005F0AD1E36A013BBC
:103620004FF6FE72934204D940F21D11234804F074
:103630007BF894F8513013F0FF0F05D1002384F884
:1036400050302046FFF75CFF022384F85130226897
:10365000136823F04003136021686268A3681A436B
:10366000E3681A4323691A4363691A43A36903F49D
:1036700000731343E2691343226A1343A26A1A4395
:103680000A602168638B03F00402636A13434B6092
:10369000A36AB3F5005F02D12368E26A1A61226867
:1036A000D36923F40063D36100206065012384F8AB
:1036B000513010BD01207047003001402CB000088F
:1036C000704700BF20B310B504460368114A934207
:1036D0000CD0A2F57842934208D002F58062934262
:1036E00004D04FF4AF710C4804F01EF8022384F8A4
:1036F00051302268136823F0400313602046FFF71F
:10370000DFFF0020606584F8510084F8500010BD90
:1037100001207047003001402CB000082DE9F04333
:1037200085B004460D46174698460C9E0023ADF81A
:103730000E30836823B14FF44A718E4803F0F4FFD2
:1037400094F85030012B00F01081012384F85030A0
:10375000FCF782FE814694F85130DBB2012B0ED08B
:103760006368B3F5827F40F0E980A368002B40F0E6
:10377000E78094F85130DBB2042B40F0E380002D59
:1037800000F0E280002F00F0E180B8F1000F00F0BF
:10379000DF8094F85130DBB2012B02D1052384F88D
:1037A000513000236365A763A4F83E80A4F83C80F1
:1037B0002563A4F83680A4F8348023646364A36A84
:1037C000B3F5005F0BD12268136823F400531B0488
:1037D0001B0C13602268136843F4005313602368C2
:1037E0001A6812F0400F03D11A6842F040021A60C2
:1037F000E368B3F5006F66D12CE0ABB123689A683B
:1038000012F0020F10D035F8022BDA60E38E013B84
:103810009BB2E38643B9A36AB3F5005F04D1226883
:10382000136843F480531360E38F53B123689A689D
:1038300012F0010F05D0DB6827F8023BE38F013B54
:10384000E387B6F1FF3F05D0FCF706FEC9EB0000A9
:1038500086427FD9E38E002BCFD1E28F002ACCD1D4
:1038600037E0D3B123689A6812F0020F15D0691CB3
:103870002A781A73E38E013B9BB2E38653B9A36A9D
:10388000B3F5005F08D12268136843F480531360D6
:103890000D4602E00D4600E00D46E38F53B123686C
:1038A0009A6812F0010F05D0DB683B70E38F013B93
:1038B000E3870137B6F1FF3F05D0FCF7CDFDC9EB3B
:1038C0000000864248D9E38E002BCAD1E28F002A3D
:1038D000C7D1A36AB3F5005F15D1CDF80090334688
:1038E000012211462046FFF7B3FD28B1636D43F076
:1038F00002036365032530E02368DB689BB2ADF803
:103900000E30BDF80E3023689A6812F0100F08D000
:10391000626D42F0020262654FF6EF729A60012515
:1039200000E000254A4631462046FFF7D5FDA0B10C
:10393000636D43F02003636501250EE002250CE072
:1039400002250AE0022508E0012506E0012504E041
:10395000012502E0032500E00325012384F851300E
:10396000002384F85030284600E0022005B0BDE86E
:10397000F08300BF2CB0000890F85100704700BFE2
:1039800070B4036A23F001030362036A4268846926
:1039900024F073040D6844EA050623F002048B68E2
:1039A00023430F4DA84204D00E4CA04203D1012462
:1039B00002E0012400E000245CB123F00803CD689C
:1039C0002B4323F0040322F440724D6915438A69A6
:1039D0002A43426086614A684263036270BC704752
:1039E00000000140000401402DE9F04104460E466C
:1039F000036A23F480730362056A4768C36923F08E
:103A000073080B6848EA030825F400738D6843EADD
:103A10000525204B984205D003F58063984203D1D9
:103A2000012302E0012300E000235BB3F36833B11C
:103A3000082B04D041F20D31174803F075FEB3692D
:103A4000B3F5007F05D023B141F20E31124803F0E7
:103A50006BFE7369B3F5807F05D023B141F20F315E
:103A60000D4803F061FE25F40065F36845EA03257F
:103A700025F4806527F44057736947EA0317B36953
:103A800047EA03176760C4F81C807368E363256224
:103A9000BDE8F081000001405CB000082DE9F04174
:103AA00004460F46036A23F480530362056AD0F884
:103AB0000480C66926F4E6430E6843EA062625F428
:103AC00000538D6843EA0535114B984205D003F544
:103AD0008063984203D1012302E0012300E0002328
:103AE00073B17B69B3F5807F05D023B141F25331C7
:103AF000084803F019FE28F480487B6948EA8318D7
:103B0000C4F80480E6617B6823642562BDE8F08127
:103B1000000001405CB00008704700BF90F83830EA
:103B2000012B00F0B28010B50446012380F8383034
:103B30000C2900F2A580DFE801F007A3A3A33EA3B0
:103B4000A3A365A3A3A384000368514A93422FD083
:103B5000B3F1804F2CD0A2F57C42934228D002F5DD
:103B60008062934224D002F58062934220D002F515
:103B7000784293421CD002F57052934218D002F55D
:103B80008062934214D002F58062934210D0A2F575
:103B9000983293420CD002F58062934208D002F52D
:103BA0008062934204D041F27A013A4803F0BCFDAE
:103BB0002368586B65E00368354A93421FD0B3F120
:103BC000804F1CD0A2F57C42934218D002F580624F
:103BD000934214D002F58062934210D002F57842ED
:103BE00093420CD002F57052934208D0A2F5943261
:103BF000934204D041F28401264803F095FD2368E6
:103C0000986B3EE00368224A934217D0B3F1804F8D
:103C100014D0A2F57C42934210D002F58062934208
:103C20000CD002F58062934208D002F578429342AC
:103C300004D041F28F01174803F076FD2368D86B5A
:103C40001FE00368124A934217D0B3F1804F14D09B
:103C5000A2F57C42934210D002F5806293420CD0D0
:103C600002F58062934208D002F57842934204D074
:103C700041F29A01074803F057FD2368186C00E0F1
:103C80000020002384F8383010BD0220704700BFA8
:103C9000000001405CB00008704700BF704700BFE3
:103CA000704700BF704700BF10B5044603681A692B
:103CB00012F0020F17D0DA6812F0020F13D06FF073
:103CC00002021A610123037603689B6913F0030F54
:103CD00002D0FFF7E3FF04E003F080FC2046FFF78B
:103CE000DFFF0023237623681A6912F0040F19D02E
:103CF000DA6812F0040F15D06FF004021A61022383
:103D0000237623689B6913F4407F03D02046FFF796
:103D1000C5FF05E0204603F061FC2046FFF7C0FF29
:103D20000023237623681A6912F0080F19D0DA6885
:103D300012F0080F15D06FF008021A6104232376E1
:103D40002368DB6913F0030F03D02046FFF7A6FFBB
:103D500005E0204603F042FC2046FFF7A1FF0023C8
:103D6000237623681A6912F0100F19D0DA6812F05E
:103D7000100F15D06FF010021A6108232376236804
:103D8000DB6913F4407F03D02046FFF787FF05E08F
:103D9000204603F023FC2046FFF782FF0023237612
:103DA00023681A6912F0010F09D0DA6812F0010FC6
:103DB00005D06FF001021A612046FFF76DFF2368FE
:103DC0001A6912F0800F09D0DA6812F0800F05D05E
:103DD0006FF080021A61204600F04EFB23681A69DA
:103DE00012F0400F09D0DA6812F0400F05D06FF0E2
:103DF00040021A612046FFF755FF23681A6912F046
:103E0000200F09D0DA6812F0200F05D06FF02002E1
:103E10001A61204600F02EFB10BD00BF0368454A22
:103E2000904214D0B0F1804F13D0A2F57C42904262
:103E300011D002F5806290420FD002F5806290426C
:103E40000DD002F5784290420BD101220AE0012206
:103E500008E0012206E0012204E0012202E0012242
:103E600000E000221AB123F070034A681343314A7C
:103E700090422CD0B0F1804F2BD0A2F57C429042E2
:103E800029D002F58062904227D002F580629042EC
:103E900025D002F57842904223D002F5705290422C
:103EA00021D002F5806290421FD002F580629042DC
:103EB0001DD0A2F5983290421BD002F5806290424C
:103EC00019D002F58062904217D1012216E001223A
:103ED00014E0012212E0012210E001220EE0012292
:103EE0000CE001220AE0012208E0012206E00122A2
:103EF00004E0012202E0012200E000221AB123F4D2
:103F00004073CA68134303608B68C3620B688362A3
:103F1000084B984205D003F58063984203D10123F2
:103F200002E0012300E000230BB10B6903630123CE
:103F30004361704700000140002870D010B504466E
:103F40000368384A934237D0B3F1804F34D0A2F59A
:103F50007C42934230D002F5806293422CD002F52D
:103F60008062934228D002F58062934224D002F509
:103F70008062934220D002F5704293421CD002F539
:103F80007052934218D002F58062934214D002F529
:103F90008062934210D0A2F5983293420CD002F581
:103FA0008062934208D002F58062934204D040F2CE
:103FB000F3111D4803F0B8FBA36863B1102B0AD0BE
:103FC000202B08D0402B06D0602B04D04FF4FA7180
:103FD000154803F0A9FB236953B1B3F5807F07D0DF
:103FE000B3F5007F04D040F2F5110F4803F09CFBBD
:103FF00094F8393013F0FF0F05D1002384F83830DE
:104000002046FFF789FD022384F83930211D2068FE
:10401000FFF704FF012384F83930002010BD012090
:10402000704700BF000001405CB000082DE9F0417E
:1040300004460E46036A23F010030362056AD0F8B3
:104040000480876927F4E6430F6843EA072725F0D1
:1040500020038D6843EA0515164B984205D003F5F9
:104060008063984203D1012302E0012300E0002392
:10407000BBB1F36833B1082B04D041F2FB110E48F9
:1040800003F052FB25F08005F36845EA031525F09F
:10409000400528F44068736948EA8308B36948EA30
:1040A0008308C4F80480A7617368A3632562BDE830
:1040B000F08100BF000001405CB0000870B504460C
:1040C0000D46164662B1042A0AD0082A08D00C2AE6
:1040D00006D0182A04D040F69531704803F024FB2E
:1040E0002B6873B1102B0CD0202B0AD0302B08D0AA
:1040F000502B06D0402B04D040F69631674803F091
:1041000013FBAB6833B1022B04D040F69731634800
:1041100003F00AFB94F83830012B00F0BC80012337
:1041200084F83830022384F839300C2E00F2AC8049
:10413000DFE806F007AAAAAA40AAAAAA69AAAAAA18
:104140008A002368564A93422FD0B3F1804F2CD077
:10415000A2F57C42934228D002F58062934224D09B
:1041600002F58062934220D002F5784293421CD03F
:1041700002F57052934218D002F58062934214D037
:1041800002F58062934210D0A2F5983293420CD08F
:1041900002F58062934208D002F58062934204D017
:1041A00040F6A2313D4803F0BFFA29462068FFF7E8
:1041B000E7FB69E023683A4A93421FD0B3F1804F8E
:1041C0001CD0A2F57C42934218D002F58062934243
:1041D00014D002F58062934210D002F578429342E7
:1041E0000CD002F57052934208D0A2F5943293425B
:1041F00004D040F6AA31294803F096FA29462068EF
:10420000FFF714FF40E02368254A934217D0B3F12B
:10421000804F14D0A2F57C42934210D002F5806208
:1042200093420CD002F58062934208D002F57842A6
:10423000934204D040F6B231184803F075FA29468B
:104240002068FFF7D1FB1FE02368154A934217D07F
:10425000B3F1804F14D0A2F57C42934210D002F506
:10426000806293420CD002F58062934208D002F53E
:104270007842934204D040F6BA31084803F054FA29
:1042800029462068FFF70AFC012384F83930002012
:1042900084F8380070BD022070BD00BF5CB000081B
:1042A0000000014070B504460E461546264B984264
:1042B0002FD0B0F1804F2CD0A3F57C43984228D06A
:1042C00003F58063984224D003F58063984220D0A0
:1042D00003F5784398421CD003F57053984218D0E8
:1042E00003F58063984214D003F58063984210D0A0
:1042F000A3F5983398420CD003F58063984208D018
:1043000003F58063984204D041F27E210F4803F008
:104310000BFA66B1042E0AD0082E08D00C2E06D057
:10432000182E04D041F27F21084803F0FDF9012343
:1043300003FA06F2236A23EA02032362236AB540E2
:104340001D43256270BD00BF000001405CB0000845
:1043500038B504460D4603683E4A934212D0B3F185
:10436000804F0FD0A2F57C4293420BD002F58062C1
:10437000934207D002F58062934203D002F578425F
:10438000934206D135B3042D24D0082D22D00C2D14
:1043900020D0314A934202D1E5B1042D1AD02F4AE0
:1043A000934200D1B5B12E4A934200D195B12D4A26
:1043B000934202D175B1042D0CD02B4A934200D107
:1043C00045B12A4A934200D125B140F296212848AE
:1043D00003F0AAF90C2D1FD8DFE805F0071E1E1EFA
:1043E0000D1E1E1E131E1E1E19002268D36843F0E8
:1043F0000203D36010E02268D36843F00403D36063
:104400000AE02268D36843F00803D36004E022681E
:10441000D36843F01003D360012229462068FFF7D8
:1044200041FF23680B4A934205D002F58062934214
:1044300003D1012202E0012200E000221AB15A6CED
:1044400042F400425A642268136843F00103136087
:10445000002038BD00000140004001400044014000
:104460000048014000180040001C004000200040AF
:104470005CB00008704700BF704700BF84B010B543
:10448000044603A880E80E00089B012B18D1A36BFB
:1044900023F48033A363E36823F4840323F040030D
:1044A000E360E36823F44013E3600F9B012B03D127
:1044B000E36843F48013E360204600F091F809E0DC
:1044C000E36843F04003E360204600F089F84FF4CE
:1044D0008033A363069B012B07D1A36843F00C0331
:1044E000A360A36843F02003A3600020BDE8104050
:1044F00004B07047836843F0010383600020704775
:10450000836823F0010383600020704708B5C36807
:1045100023F0C043C360012904D1C36843F00053B2
:10452000C36004E019B9C36843F08043C36032201C
:10453000FBF798FF002008BD890141F020010161CF
:1045400000230133054A934205D8026912F0200F77
:10455000F7D1002070470320704700BF400D0300D3
:104560001023036100230133054A934205D80269F1
:1045700012F0100FF7D1002070470320704700BFE2
:10458000400D030070B49DF80C406CB903339B08D8
:10459000002507E000EB023404F5805451F8046B69
:1045A000266001359D42F5D3002070BC704700BFE6
:1045B00010B403329208002305E000F5805424680B
:1045C00041F8044B01339342F7D3084610BC7047BF
:1045D0004269806910407047406900F001007047EF
:1045E000002301330C4A934211D80269002AF8DAF9
:1045F000036943F00103036100230133064A934238
:1046000007D8026912F0010FF7D10020704703208C
:1046100070470320704700BF400D030084B038B5D9
:10462000044605A880E80E0025460023C4F8003E95
:10463000A36B23F48023A363A36B23F40023A3635E
:10464000A36B43F40013A363079B032B09D1B4F1BD
:10465000A04F06D0D4F8003443F00403C4F800346B
:1046600005E0D4F8003423F00403C4F8003410212A
:104670002046FFF761FF2046FFF772FF002209E0A6
:1046800005EB42134FF0FF31C3F808150021C3F8C2
:104690000C150132069B9A42F2D30121204600F00C
:1046A0006BF8C820FBF7DEFE0023A3614FF0FF3359
:1046B0006361B4F1A04F08D18023636203F5C003A6
:1046C000A3620E4BC4F8003108E04FF4007363623C
:1046D00003F18073A3620A4BC4F80031089B1BB935
:1046E000A36943F01003A361A269064B1343A361BE
:1046F0000020BDE8384004B0704700BFE000400033
:104700000003E000080020A310B400F58064D0F896
:10471000003423F00303C0F80034D0F8002401F083
:1047200003031343C0F80034012903D14BF680334F
:10473000636004E0022902D141F2707363600020DB
:1047400010BC704710B582B00446D0F840340193D5
:10475000019B23F02E030193019B43F48073C0F867
:1047600040340A20FBF77EFE019B23F48073C4F8DB
:104770004034002002B010BD82B0D0F84034019324
:10478000019B23F02E030193019B13F4805F06D15C
:10479000012904D1019B43F48053C0F84034019BAC
:1047A00013F4805F05D021B9019B23F48053C0F836
:1047B0004034002002B0704782B0D0F840340193FA
:1047C0000198C0F3414002B0704700BF00F580601F
:1047D000806880B2704700BFF0B59DF8184000EBCC
:1047E000411505F5A0664FF0FF37B760032C2BD8B5
:1047F000DFE804F00220021540F29D47F76012F056
:10480000800F04D0F76847F48077F7601CE0B0F1C0
:10481000A04F19D0F76847F06007F76014E040F246
:104820009D67F76012F0800F0ED0F76847F480772D
:10483000F76009E040F22527F76012F0800F03D0FF
:10484000F76847F4C077F76000F5806ED0F8186419
:10485000012707FA01F13143C0F81814816941F0CA
:10486000007181619B0503F0FE53D10201F4F04118
:104870000B4312F0800F02D04FF4004200E0002200
:1048800013439DF81420022A02D14FF4003200E0B5
:1048900000221343A20402F440221343BDF81C205B
:1048A000C2F30A021343C5F80035032C05D1D5F82D
:1048B000003543F00053C5F800350020F0BD00BFBF
:1048C00080B58AB002AFF860B9601346FB7100236F
:1048D0007B7700237B830023FB834FF480733B8330
:1048E00000237B61FB68B3F1A04F2BD0BB681B7921
:1048F000002B27D1FB79002B0BD1BB685B79012BF7
:1049000007D1BB685B781946F86800F023FA0023EA
:104910000DE1FB79012B15D1BB685B785A01FB686F
:10492000134403F5A0631946BB685B785A01FB6822
:10493000134403F5A063DB6823F06003CB60BB681E
:1049400000225A71BB681B69002B19D0BB681B6918
:10495000BA6812891344013BBA681289B3FBF2F3B7
:10496000FB83FA8B3B8B9A420CD93B8BFB83FB8BF3
:10497000BA68128902FB03F31A46BB681A6101E0A8
:104980000123FB83BB68DB78002B07D0FB8BBA6865
:10499000128902FB03F31A46BB681A61BB685B7895
:1049A0005A01FB68134403F5A0631946BB681B69F1
:1049B000C3F31202FB8BDB0418465F4B03401A4320
:1049C000BB689B7A5B0703F0C04313430B61FB7921
:1049D000002B0AD0BB685B785A01FB68134403F5CF
:1049E000A0631A46BB68DB685361FB6803F580630C
:1049F0009B6803F00103002B0CBF01230023DBB2F3
:104A00007B77BB685B785A01FB68134403F5A063AE
:104A10001946BB685B785A01FB68134403F5A06331
:104A20001B6823F000530B60BB685B785A01FB687E
:104A3000134403F5A0631946BB685B785A01FB6811
:104A4000134403F5A0631B687A7F520713430B607E
:104A5000BB685B785A01FB68134403F5A0631B68CD
:104A60007B617B6923F080437B617B6943F000437A
:104A70007B61BB685B785A01FB68134403F5A06354
:104A80001A467B691360FB79002B4FD1BB68DB783A
:104A9000002B4BD1BB681B69002B47D0BB68DB796F
:104AA000032B31D801A252F823F000BFBD4A000801
:104AB000E14A0008BD4A0008E14A0008BB681B69DA
:104AC00003339B087B837A8BFB68DB6A9BB29A4239
:104AD0001CD9FB689B6943F02002FB689A6115E0D2
:104AE000BB681B6903339B087B837A8BFB6803F5E8
:104AF00080631B699BB29A420AD9FB689B6943F0A9
:104B00008062FB689A6103E000BF02E000BF00E042
:104B100000BFBB68D968BB685A78BB681B6998B28C
:104B2000002300930346F868FFF72CFD0023184686
:104B30002037BD4680BD00BF0000F81F80B483B0A1
:104B400000AF78607B6803F580635B699BB21846B1
:104B50000C37BD4680BC704780B485B000AF78602C
:104B60000B46FB700023FB60FB785A017B68134403
:104B700003F5A0631B68FB785A017B68134403F5B7
:104B8000A0631B6803F40023002B6DD0FB785A014F
:104B90007B68134403F5A0631946FB785A017B68D0
:104BA000134403F5A0631B6843F080430B607B68EC
:104BB000DB6A9BB2002B43D1FB785A017B6813441C
:104BC00003F5A0631946FB785A017B68134403F58B
:104BD000A0631B6823F000430B60FB785A017B68DD
:104BE000134403F5A0631946FB785A017B6813440C
:104BF00003F5A0631B6843F000430B60FB785A0188
:104C00007B68134403F5A0631946FB785A017B685F
:104C1000134403F5A0631B6823F400430B60FB6897
:104C20000133FB60FB68B3F57A7F1BD8FB785A0130
:104C30007B68134403F5A0631B68002BEFDB82E065
:104C4000FB785A017B68134403F5A0631946FB788F
:104C50005A017B68134403F5A0631B6843F00043CB
:104C60000B6070E000BF6EE0FB785A017B68134474
:104C700003F5A0631946FB785A017B68134403F5DA
:104C8000A0631B6843F080430B607B6803F580637F
:104C90001B699BB2002B43D1FB785A017B681344FC
:104CA00003F5A0631946FB785A017B68134403F5AA
:104CB000A0631B6823F000430B60FB785A017B68FC
:104CC000134403F5A0631946FB785A017B6813442B
:104CD00003F5A0631B6843F000430B60FB785A01A7
:104CE0007B68134403F5A0631946FB785A017B687F
:104CF000134403F5A0631B6823F400430B60FB68B7
:104D00000133FB60FB68B3F57A7F1BD8FB785A014F
:104D10007B68134403F5A0631B68002BEFDB12E0F4
:104D2000FB785A017B68134403F5A0631946FB78AE
:104D30005A017B68134403F5A0631B6843F00043EA
:104D40000B6000E000BF002318461437BD4680BC4E
:104D5000704700BF80B485B000AF78600B46FB7031
:104D60000123FB730023BB60FB785A017B6813446B
:104D700003F5A0631A46FB7BDB041946114B0B407D
:104D800043F000431361FB785A017B68134403F539
:104D9000A0631B68BB60BB6823F08043BB60BB683B
:104DA00043F00043BB60FB785A017B68134403F572
:104DB000A0631A46BB681360002318461437BD462B
:104DC00080BC70470000F81F80B586B000AF7860E7
:104DD00000233B617868FFF793FB10217868FFF7A9
:104DE000ABFB7868FFF7BCFB0023FB751FE0FB7D86
:104DF0005A017B68134403F5A0631B68FB60FB68E2
:104E000043F08043FB60FB6823F00043FB60FB68DA
:104E100023F40043FB60FB7D5A017B68134403F5D8
:104E2000A0631A46FB681360FB7D0133FB75FB7DB5
:104E30000F2BDCD90023FB7531E0FB7D5A017B6829
:104E4000134403F5A0631B68FB60FB6843F08043D9
:104E5000FB60FB6843F00043FB60FB6823F4004306
:104E6000FB60FB7D5A017B68134403F5A0631A467F
:104E7000FB6813603B6901333B613B69B3F57A7FA3
:104E800009D8FB7D5A017B68134403F5A0631B68B6
:104E9000002BEFDB00E000BFFB7D0133FB75FB7DEA
:104EA0000F2BCAD97B6803F580631A464FF0FF3396
:104EB00053617B684FF0FF325A617868FFF71AFB45
:104EC000002318461837BD4680BD00BFFEE700BF6F
:104ED00008B50D4B1B6813B90C4A0B4B1A600A4BF3
:104EE0001A68C31C23F00303134409498B4206D9F3
:104EF00005F020FB0C2303604FF0FF3008BD024992
:104F00000B60104608BD00BF5C010020902000200F
:104F100000FC012001230360014B0B60704700BFC0
:104F2000040000200FB400B583B004AB53F8042B89
:104F300001938021064805F00FFC002803DD01469F
:104F4000034800F02BF803B05DF804EB04B07047A1
:104F50006401002010B400221AE04FF06043D3F83F
:104F6000803E13F0010F06D04FF06043D3F8003EAF
:104F700013F0010F01D110460DE04FF060431B68A4
:104F8000002BFAD004784FF060431C7001320130DE
:104F90008A42E2D3084610BC704700BF08B5FFF74D
:104FA000D9FF08BD08B500F085F8024B024A9A60A7
:104FB00008BD00BF00ED00E00000000808B500F0EB
:104FC00099F808BDF8B504460D4617461E46264812
:104FD000FFF7A8FF21682548FFF7A4FF6168244870
:104FE000FFF7A0FFA1682348FFF79CFFE168224874
:104FF000FFF798FF21692148FFF794FF6169204876
:10500000FFF790FFA1691F48FFF78CFFE1691E4879
:10501000FFF788FF1D48FFF785FF29461C48FFF76B
:1050200081FF1C4CE16A1C48FFF77CFF216B1B4889
:10503000FFF778FFE16B1A48FFF774FF15F0800F58
:1050400003D039461748FFF76DFF15F4004F03D022
:1050500031461548FFF766FF1448FFF763FF0699CE
:105060001348FFF75FFFF8BD8CB000089CB0000844
:10507000ACB00008BCB00008CCB00008DCB0000840
:10508000ECB00008FCB000080CB100081CB100082E
:1050900028B1000800ED00E038B1000848B1000870
:1050A00058B1000868B1000878B1000888B100085C
:1050B00090B100080C4B1A6842F001021A600021FE
:1050C00099601A6822F0847222F480321A60074ACA
:1050D0005A601A6822F480221A60D9604FF0006288
:1050E000034B9A60704700BF003802401030002424
:1050F00000ED00E0224B9B6803F00C03042B07D06B
:10510000082B09D0002B2DD11E4A1F4B1A602CE012
:105110001E4A1D4B1A6028E0194B5A685B6803F061
:105120003F0312F4800F09D0184AB2FBF3F2144B7C
:105130005B68C3F3881303FB02F208E0114AB2FB79
:10514000F3F30F4A5168C1F3881101FB03F20C4BD2
:105150005B68C3F3014301335B00B2FBF3F30A4A1C
:10516000136002E0074A084B1A60054B9B68C3F3C3
:105170000313074AD15C044A1368CB40136070479D
:10518000003802400024F4000C00002000127A00D5
:10519000D4B10008002070470020704708B502F025
:1051A00073FD002008BD00BF70B5642909D8C1EBAC
:1051B0000123154A82FB0342DB17C3EB6212D2B212
:1051C00000E06422E6290FD9C5B21932D4B22246D2
:1051D00020212846FFF7E2FF0646224621212846E5
:1051E000FFF7DCFF304470BDC5B21932D4B222469D
:1051F00020212846FFF7D2FF0646224621212846D5
:10520000FFF7CCFF304470BD1F85EB512DE9F04115
:1052100007460E46904602F003FDFDB20122022130
:105220002846FFF7BBFF0446731E032B13D8DFE8A5
:1052300003F002060A0EFA22314B1A700EE0AF227A
:105240002F4B1A700AE0AA222D4B1A7006E0052295
:105250002B4B1A7002E00522294B1A70284B1A7842
:1052600004212846FFF79AFF04448122052128469D
:10527000FFF794FF0444042206212846FFF78EFF1F
:10528000044441463846FFF78FFF0444022E11D0F4
:1052900006220F212846FFF781FF04440022242123
:1052A0002846FFF77BFF0444002225212846FFF70C
:1052B00075FF044400220A212846FFF76FFF0444CB
:1052C00004220E212846FFF769FF0444002227210B
:1052D0002846FFF763FF04440F221F212846FFF7EB
:1052E0005DFF04440A221A212846FFF757FF0444B1
:1052F0000A221B212846FFF751FF2044BDE8F08118
:10530000E401002038B5012913D1C5B2FF220421E0
:105310002846FFF743FF0446012222212846FFF7D3
:105320003DFF0444012223212846FFF737FF204494
:1053300038BDC5B2002222212846FFF72FFF0446C0
:10534000002223212846FFF729FF0444034B1A7843
:1053500004212846FFF722FF204438BDE401002045
:105360000E4B1B78012B17D170B50546C6B206222D
:105370000E213046FFF712FF044600212846FFF7B2
:10538000C1FF04449E2202213046FFF707FF20445C
:105390000022024B1A7070BD0020704710000020E0
:1053A00038B505460121FFF7ADFF04460122022171
:1053B000E8B2FFF7F3FE204438BD00BF70B582B0FD
:1053C0000446002601963146FFF79CFF05460196EC
:1053D00002E0019B01330193019BFE2BF9D9E4B25A
:1053E000074B1A7804212046FFF7D8FE05449E2279
:1053F00002212046FFF7D2FE284402B070BD00BF54
:10540000E401002038B504460121FFF77BFF054683
:10541000E4B204220E212046FFF7C0FE05449F227D
:1054200002212046FFF7BAFE0122024B1A702844DF
:1054300038BD00BF1000002008B50139032927D866
:10544000DFE801F0020B141DFA220421C0B2FFF7BD
:10545000A5FEFA22134B1A7008BDAF220421C0B278
:10546000FFF79CFEAF220F4B1A7008BDAA22042141
:10547000C0B2FFF793FEAA220A4B1A7008BD05229C
:105480000421C0B2FFF78AFE0522064B1A7008BD40
:1054900005220421C0B2FFF781FE0522014B1A70DC
:1054A00008BD00BFE401002008B502F0EBFB08BD19
:1054B00010B5044602F0B4FB0121E0B202F0E8FBB3
:1054C00000F0F80010BD00BF04E00A7802701A4630
:1054D00001310130531E002AF7D1704702E00170FC
:1054E0001A460130531E002AF9D1704770B40023C8
:1054F00001E029463046541E32B1461C03784D1C4B
:10550000087822461B1AF4D0184670BC704700BFBA
:1055100000E0013090F900300BB18B42F9D1184610
:10552000704700BF30B400252B4620E003EB430456
:10553000A2001E4CA258C2B1D0F80042A24215D11E
:1055400003EB4304A200194C22445468D0F808220B
:1055500094420BD103EB4304A200144C224414895F
:10556000B0F80622944201D103E001250133012B5A
:10557000DCD9022B04D17DB902290FD1002012E021
:1055800071B903EB43039A00084B1A445389B3F5EE
:10559000807F07D1102006E0002004E0122002E006
:1055A000102000E0002030BC704700BFE801002060
:1055B000002000E00130012806D800EB40029300F3
:1055C000034AD358002BF5D1023818BF0120704789
:1055D000E801002070B400231DE003EB4304A200A7
:1055E0002F4CA458D0F80022944213D103EB43046B
:1055F000A2002B4C22445468D0F80822944209D1CE
:1056000003EB4304A200264C22441489B0F806227E
:10561000944202D00133012BDFD9022B1ED101E0CD
:10562000013300E00023012B06D803EB4304A20062
:105630001B4CA258002AF3D1022B2BD0D0F80052D9
:10564000174E5A001A44940032193551D0F80842C6
:105650005460B0F8060210810020508131B103EB94
:10566000430082000E4802445289AAB941B903EBB3
:1056700043018A000A490A445189013189B201E093
:105680004FF4807103EB43008200054802445181CE
:10569000581C02E0002000E0002070BC704700BFF2
:1056A000E80100200138012819D800EB40029300DE
:1056B0000D4A13445B89B3F5807F00D100230BB101
:1056C000013B9BB200EB40018A0007490A44538129
:1056D0003BB900EB400083000020C8507047022017
:1056E00070470020704700BFE801002010B400237D
:1056F0000DE003EB43018A0007498A58824205D135
:1057000003EB43018A00002403498C500133012B31
:10571000EFD910BC704700BFE8010020D0F8242268
:105720000432490AD0F8003293F80202B1FBF0F1DA
:1057300013683BB1994202D3C91A0832F8E750689E
:105740000844704700207047CA7E8B7E43EA0223DC
:1057500090F80022032A05D1487D0A7D42EA002202
:1057600043EA0243184670478176C1F30723C376A4
:10577000090C0175090A4175704700BF2DE9F84F02
:105780008A460C6800E0013494F900302F2BFAD0DF
:105790005C2BF8D0D0F818B20B2220215846FFF726
:1057A0009DFE002633460827B04600E04B4603F135
:1057B0000109E356DDB2202D34D92F2D32D05C2DD6
:1057C00030D02E2D01D0B7420AD8082F52D12E2D1D
:1057D00053D14FEA88085FFA88F808260B27E5E7D7
:1057E000002B04DA48F00308803D284B5D5D294614
:1057F0002748FFF78DFE002842D1A5F14103DBB217
:10580000192B02D848F0020808E0A5F16103DBB2C9
:10581000192B03D848F00108203DEDB20BF80650D3
:105820000136C3E74C44CAF80040202D01D80423B8
:1058300000E000233EB39BF80020E52A02D10522B8
:105840008BF80020082F03D14FEA88085FFA88F808
:1058500008F00302012A01D143F0100308F00C08FC
:10586000B8F1040F01D143F008038BF80B3000208E
:10587000BDE8F88F0620BDE8F88F0620BDE8F88F58
:105880000620BDE8F88F0620BDE8F88FE4B10008D7
:1058900064B2000810B4046824B94FF0FF3321E06B
:1058A000013200E0224692F90030D9B2202901D914
:1058B0003A2BF5D13A2B0BD1611C94F90030303BD7
:1058C000092B07D88A4208D153B90132026009E096
:1058D000002307E04FF0FF3304E04FF0FF3301E017
:1058E0004FF0FF33184610BC704700BFF8B590F872
:1058F00004323BB30446D0F82C62074601233246FB
:10590000014690F8010203F057FAE8B9002384F841
:105910000432D4F82032F31AD4F81822934215D264
:1059200094F803520AE0D4F818321E440123324698
:10593000394694F8010203F03FFA013D012DF2D8F7
:105940000020F8BD0020F8BD0120F8BD0020F8BD02
:1059500070B5D0F82C328B4213D004460D46FFF7B9
:10596000C5FF064670B901232A46214694F8010274
:1059700003F0DCF910B101264FF0FF35C4F82C52CA
:1059800000E00026304670BD10B50446002380F8C4
:1059900004324FF0FF33C0F82C32FFF7D9FF80BB41
:1059A00094F8FF2194F8FE3143EA02231BB2194A0E
:1059B000934228D194F8392094F838301B0443EAF4
:1059C000026394F8372043EA022394F83620134305
:1059D00023F07F43104A934217D094F8552094F84F
:1059E00054301B0443EA026394F8532043EA022331
:1059F00094F85220134323F07F43074A934206D181
:105A000010BD032010BD022010BD002010BD0120DC
:105A100010BD00BF55AAFFFF46415400A8B108B50C
:105A2000D0F800329BB193F8001291B1B3F806128E
:105A3000B0F8042291420ED193F8010203F06AF902
:105A400010F0010F09D1002008BD0920704709207E
:105A500008BD092008BD092008BD092008BD00BFF8
:105A6000F0B585B006461746002303600846FFF7E9
:105A700011FF051EC0F28481CD4B53F82540002C48
:105A800000F08081346094F800327BB194F8010218
:105A900003F040F910F0010F08D1002F00F07481DD
:105AA00010F0040F40F07281002098E1002384F888
:105AB0000032E8B284F8010203F02AF910F0010F75
:105AC00040F066811FB110F0040F40F063810021A7
:105AD0002046FFF759FF01281AD000262CE01301B9
